:020000040800F2
:1000000000080020590100085701000855010008A8
:1000100055010008550100085501000800000000C6
:100020000000000000000000000000005701000870
:1000300057010008000000005701000857010008A0
:100040005501000855010008550100085501000838
:100050005501000855010008550100085501000828
:100060005501000855010008550100085501000818
:100070005501000855010008550100085501000808
:1000800055010008550100085501000855010008F8
:1000900055010008550100085501000855010008E8
:1000A00055010008550100085501000855010008D8
:1000B00055010008550100085501000855010008C8
:1000C00055010008550100085501000855010008B8
:1000D00055010008550100085501000855010008A8
:1000E0005501000855010008550100085501000898
:1000F0005501000855010008550100085501000888
:100100005501000855010008550100085501000877
:100110005501000855010008550100085501000867
:100120005501000855010008550100085501000857
:100130005501000855010008550100085501000847
:100140005501000855010008550100085501000837
:1001500000207047FEE7704738B51A4A1A4B1B4912
:100160008B421AD300211A4A93421BD34FF0E0224C
:10017000D2F8143D174C43F40073174DC2F8143DE8
:10018000AC4212D3154C164DAC4212D3FFF7E0FF30
:10019000144C154DAC4210D338BD52F8040B43F843
:1001A000040BDDE743F8041BDEE754F8043B9847F3
:1001B000E6E754F8043B9847E6E754F8043B9847D1
:1001C000E8E700BFEC01000800000020000000206C
:1001D00000000020EC010008EC010008EC01000820
:0C01E000EC010008EC010008EC01000834
:040000050800015995
:00000001FF
